:0F00A200750800750900750A00750B00750C00D4
:1000B6005392BF43934053927F439380C297C29615
:1000C6005392DF439320D295750B00D2949003E8A8
:1000D600121C22C294900115E060FAD294121CBA46
:1000E600858208C008850B82120C0F85820B15814C
:1000F6007403B50B028003020C0A900001E0FFBFF7
:1001060001030201B6BF02030201CABF03030201D3
:10011600DEBF04030201F2BF0503020209BF0603A4
:1001260002022FBF07030202A0BF08030202B4BFE8
:10013600090302035FBF0A03020373BF0C03020431
:1001460012BF0D03020373BF1003020452BF110353
:10015600020466BF1203020523BF1303020610BF83
:100166001403020624BF2303020694BF30030206CB
:10017600A8BF31030206D5BF32030207C2BF400340
:10018600020832BF4103020846BF4203020903BF09
:1001960043030209F0BF4403020A0DBF4503020AE6
:1001A6008DBF4603020B0DBFFF03020BF9020C0ABB
:1001B600121173D2F085F021758281121BF6750B30
:1001C60000020C0A1218D5D2F085F021758282122F
:1001D6001BF6750B00020C0A120EBED2F085F0213A
:1001E600758283121BF6750B00020C0A9000001232
:1001F6000E80D2F085F021758284121BF6750B00F5
:10020600020C0A750900900003E0FFC3E5099F5040
:1002160007120F68050980EED2F085F021758285F8
:10022600121BF6750B00020C0A900003E0FFC007D4
:1002360090008D75F000120C7A1581C2F085F021C0
:10024600758286121BF6750900900003E0FFC3E570
:10025600099F503DE50975F002A4248DF5827400CE
:1002660035F0F583E0FFC2F085F0218F82121BF690
:10027600E50975F002A4248DF582740035F0F58346
:10028600E0A3E0F582C2F085F021121BF605098095
:10029600B8121C3C750B00020C0A120EA6D2F08591
:1002A600F021758287121BF6750B00020C0A750980
:1002B60000900003E0FF7E007402C0E0E4C0E08F1F
:1002C600828E831221DAAE82AF8315811581AC0945
:1002D6007D00C3EC9EED64808FF063F08095F05056
:1002E60051E50975F002A4248DFA740035F0FBEC93
:1002F6002CFCED33FD74052CF8E43DF9E82401F5FA
:1003060082E93400F583E0F9780074042CFCE43DBE
:10031600FDEC2401F582ED3400F583E0FD7C002838
:10032600F8EC39F98A828B83E8F0E9A3F005090233
:1003360002B7900004E0FDC005C00690008D75F080
:1003460000120DB915811581D2F085F021758288CC
:10035600121BF6750B00020C0A120ECBD2F085F0BA
:1003660021758289121BF6750B00020C0A750D8D1C
:10037600750E00750F00900001E0FFBF0A2890007F
:1003860003E0FE7461C0E0C006850D82850E83859C
:100396000FF0120CF515811581C2F085F0217582DA
:1003A6008A121BF68029BF0D26900003E0FF7464B5
:1003B600C0E0C007850D82850E83850FF0120CF50F
:1003C60015811581C2F085F02175828D121BF67597
:1003D6000900900003E0FFC3E5099F5026AD0DAE6E
:1003E6000EAF0F8D828E838FF01221BEFD050DE4B8
:1003F600B50D02050EC2F085F0218D82121BF605A1
:100406000980CF121C3C750B00020C0A900003E019
:10041600FF7E007D007C00900004E0FA7B008B00EC
:10042600EAF93395E0FAFBE82FFFE93EFEEA3DFDE7
:10043600EB3C8F828E838DF0120EFCD2F085F0217C
:1004460075828C121BF6750B00020C0A1211BBD2B8
:10045600F085F021758290121BF6750B00020C0ACE
:10046600900004E0FF7E008E048F057F009000055B
:10047600E0F879007A008A0389028801E42FFFE90F
:100486003EFEEA3DFDEB3CFC900006E0F8E4F9FB9D
:10049600E82FF512E93EF513EA3DF514EB3CF515A8
:1004A600900003E0FFC007C012C013C014C015902F
:1004B600008D75F000121729E58124FBF581C2F045
:1004C60085F021758291121BF6750900900003E0F4
:1004D600FFC3E5099F503DE50975F002A4248DF59B
:1004E60082740035F0F583E0FFC2F085F0218F823B
:1004F600121BF6E50975F002A4248DF58274003509
:10050600F0F583E0A3E0F582C2F085F021121BF638
:10051600050980B8121C3C750B00020C0A900004F9
:10052600E0FF7E008E048F057F00900005E0F879DD
:10053600007A008A0389028801E42FFFE93EFEEA79
:100546003DFDEB3CFC900006E0F8E4F9FBE82FF5F6
:1005560012E93EF513EA3DF514EB3CF5158F0990CB
:100566000003E0FF7E007402C0E0E4C0E08F828EEC
:10057600831221DAAE82AF8315811581AC097D0025
:10058600C3EC9EED64808FF063F08095F05051E5EA
:100596000975F002A4248DFA740035F0FBEC2CFCEE
:1005A600ED33FD74072CF8E43DF9E82401F582E902
:1005B6003400F583E0F9780074062CFCE43DFDEC8C
:1005C6002401F582ED3400F583E0FD7C0028F8EC8B
:1005D60039F98A828B83E8F0E9A3F00509020565FB
:1005E600C006C012C013C014C01590008D75F0006F
:1005F60012147CE58124FBF581D2F085F021758209
:1006060092121BF6750B00020C0A1211E7D2F08546
:10061600F021758293121BF6750B00020C0A9000EE
:1006260004E0FF7E008E048F057F00900005E0F851
:1006360079007A008A0389028801E42FFFE93EFEE9
:10064600EA3DFDEB3CFC900006E0F8E4F9FBE82F00
:10065600F512E93EF513EA3DF514EB3CF51590006D
:1006660008E0FF900007E0FEC012C013C014C015DA
:10067600C0078E82121581E58124FBF581D2F085B3
:10068600F021758294121BF6750B00020C0A1212E9
:1006960049D2F085F0217582A3121BF6750B000274
:1006A6000C0A900005E0FF900004E0FE900003E0D5
:1006B600FDC007C0068D821212AB15811581D2F0DE
:1006C60085F0217582B0121BF6750B00020C0A909C
:1006D6000004E0FF7E008E048F057F00900005E099
:1006E600F879007A008A0389028801E42FFFE93E3F
:1006F600FEEA3DFDEB3CFC900006E0F8E4F9FBE881
:100706002FF512E93EF513EA3DF514EB3CF5158F8E
:1007160009900003E0FF7E007402C0E0E4C0E08FB1
:10072600828E831221DAAE82AF8315811581AC09E0
:100736007D00C3EC9EED64808FF063F08095F050F1
:1007460051E50975F002A4248DFA740035F0FBEC2E
:100756002CFCED33FD74072CF8E43DF9E82401F593
:1007660082E93400F583E0F9780074062CFCE43D58
:10077600FDEC2401F582ED3400F583E0FD7C0028D4
:10078600F8EC39F98A828B83E8F0E9A3F0050902CF
:100796000717C006C012C013C014C01590008D758F
:1007A600F000121377E58124FBF581D2F085F02164
:1007B6007582B1121BF6750B00020C0A900004E05C
:1007C600FF7E008E048F057F00900005E0F879001B
:1007D6007A008A0389028801E42FFFE93EFEEA3D9A
:1007E600FDEB3CFC900006E0F8E4F9FBE82FF5127F
:1007F600E93EF513EA3DF514EB3CF515900008E0EB
:10080600FF900007E0FEC012C013C014C015C00759
:100816008E82121631E58124FBF581D2F085F02116
:100826007582B2121BF6750B00020C0A1218FBD267
:10083600F085F0217582C0121BF6750B00020C0ABA
:10084600900004E0FF7E008E048F057F0090000577
:10085600E0F879007A008A0389028801E42FFFE92B
:100866003EFEEA3DFDEB3CFC900006E0F8E4F9FBB9
:10087600E82FF512E93EF513EA3DF514EB3CF515C4
:10088600900003E0FFC007C012C013C014C015904B
:10089600008D75F000121A96E58124FBF581C2F0F1
:1008A60085F0217582C1121BF6750900900003E0E0
:1008B600FFC3E5099F503DE50975F002A4248DF5B7
:1008C60082740035F0F583E0FFC2F085F0218F8257
:1008D600121BF6E50975F002A4248DF58274003525
:1008E600F0F583E0A3E0F582C2F085F021121BF655
:1008F600050980B8121C3C750B00020C0A90000416
:10090600E0FF7E008E048F057F00900005E0F879F9
:10091600007A008A0389028801E42FFFE93EFEEA95
:100926003DFDEB3CFC900006E0F8E4F9FBE82FF512
:1009360012E93EF513EA3DF514EB3CF5158F0990E7
:100946000003E0FF7E007402C0E0E4C0E08F828E08
:10095600831221DAAE82AF8315811581AC097D0041
:10096600C3EC9EED64808FF063F08095F05051E506
:100976000975F002A4248DFA740035F0FBEC2CFC0A
:10098600ED33FD74072CF8E43DF9E82401F582E91E
:100996003400F583E0F9780074062CFCE43DFDECA8
:1009A6002401F582ED3400F583E0FD7C0028F8ECA7
:1009B60039F98A828B83E8F0E9A3F0050902094533
:1009C600C006C012C013C014C01590008D75F0008B
:1009D600121A17E58124FBF581D2F085F021758284
:1009E600C2121BF6750B00020C0A908000E4F5F0AB
:1009F600121925121952D2F085F0217582C3121BE5
:100A0600F6750B00020C0A900004E0FF7E008E04CF
:100A16008F057F00900005E0F879007A008A038947
:100A2600028801E42FFFE93EFEEA3DFDEB3CFC9027
:100A36000006E0F8E4F9FBE82FF512E93EF513EAC3
:100A46003DF514EB3CF515900007E0FF8F108B1178
:100A56007E00900008E07C002EF510EC3FF511C0FA
:100A660012C013C014C015851082851183121B068F
:100A7600E58124FCF581D2F085F0217582C4121B34
:100A8600F6750B00020C0A900004E0FF7E008E044F
:100A96008F057F00900005E0F879007A008A0389C7
:100AA600028801E42FFFE93EFEEA3DFDEB3CFC90A7
:100AB6000006E0F8E4F9FBE82FF512E93EF513EA43
:100AC6003DF514EB3CF515900007E0FF8F108B11F8
:100AD6007E00900008E07C002EF510EC3FF511C07A
:100AE60012C013C014C015851082851183121BB65F
:100AF600E58124FCF581D2F085F0217582C5121BB3
:100B0600F6750B00020C0A900004E0FF7E008E04CE
:100B16008F057F00900005E0F879007A008A038946
:100B2600028801E42FFFE93EFEEA3DFDEB3CFC9026
:100B36000006E0F8E4F9FBE82FF512E93EF513EAC2
:100B46003DF514EB3CF5158F09900003E0FF7E00A0
:100B56007402C0E0E4C0E08F828E831221DAAE8296
:100B6600AF8315811581AC097D00C3EC9EED6480D1
:100B76008FF063F08095F05051E50975F002A424DA
:100B86008DFA740035F0FBEC2CFCED33FD74072C6C
:100B9600F8E43DF9E82401F582E93400F583E0F94B
:100BA600780074062CFCE43DFDEC2401F582ED345E
:100BB60000F583E0FD7C0028F8EC39F98A828B8306
:100BC600E8F0E9A3F00509020B4FC006C012C013F6
:100BD600C014C01590008D75F000121B3EE58124EF
:100BE600FBF581D2F085F0217582C6121BF6750BD6
:100BF60000801175E10075E206900064121C22C2A5
:100C0600AF023800C2940200DBC01E85811EE58259
:100C1600FF7012750C01900001E51E24FDF8E6F048
:100C2600758201804CBF0127E51E24FDF886068EDD
:100C36000AAD0C050CED2401F582E43400F583EED3
:100C4600F0E50A700575820380277582028022BF4F
:100C5600021DAE0C050CEE2401F582E43400F5838A
:100C6600E51E24FDF8E6F0D50A0575820380028F9D
:100C760082D01E22C01E85811EC082C083C0F07C29
:100C860000E51E24FDF8C3EC96505EC0047406C051
:100C9600E090000412100F1581D004EC75F002A448
:100CA600FAABF0A81E08EA26FAEB0836FB08860718
:100CB600C007C004C003C002120FF5AD82AE83D0D8
:100CC60002D003D004D0078A828B838FF0ED1221E5
:100CD600A3A3EE1221A3C0047406C0E0900006127E
:100CE600100F1581D0040C8098851E81D01E22C05D
:100CF6001E85811EC082C083C0F00581E51E24FCCE
:100D0600F8E4B6610104FCE51E24FCF8E4B66401CF
:100D160004FBE51E2404F87600E51E2404F8E51E0F
:100D260024FDF9C3E6974003020DB3EC6016C00438
:100D3600C0037406C0E090000512100F1581D003A1
:100D4600D0048017EB6014C004C0037406C0E090A2
:100D5600000412100F1581D003D004C003A81E088A
:100D6600E51E2404F9E726FBE40836FE088607C0DC
:100D760007C006C004C003120FF5AA82D003D00430
:100D8600D006D0078B828E838FF0EA1221A3C0048F
:100D9600C0037406C0E090000612100F1581D00340
:100DA600D004E51E2404F806D003020D1F851E811B
:100DB600D01E22C01E85811EC082C083C0F07C006A
:100DC600E51E24FDF8C3EC964003020E4CC00474E5
:100DD60006C0E090000212100F1581D004EC75F0E9
:100DE60002A4FAABF0A81E08EA26FAEB0836FB08BE
:100DF60086078A828B838FF01221BEFAA31221BE48
:100E0600FBEA2AF582EB33F583C0047410C0E012C6
:100E1600100F1581D004E51E24FDF886067F001EFE
:100E2600BEFF011F8C037D00EBB50606EDB507027C
:100E36008010C0047406C0E090000612100F1581E1
:100E4600D0040C020DC67406C0E090000812100F04
:100E56001581E51E24FCF8B60108900005121C2237
:100E66008006900003121C227406C0E09000061251
:100E7600100F1581851E81D01E22AE82AF83C0075A
:100E8600C0067406C0E090000012100F1581D0064F
:100E9600D0077410C0E08E828F8312100F15812246
:100EA600900000120E807406C0E090000912100F28
:100EB600158190000A021C227406C0E090001612EA
:100EC600100F1581227406C0E090001D12100F1538
:100ED600817408C0E090000012100F15817408C0DC
:100EE600E090000012100F15817408C0E090000019
:100EF60012100F158122AC82AD83AEF0FFEC2CFCF4
:100F0600ED33FDEE33FEEF33FFC007C006C005C06C
:100F1600047406C0E090001D12100F1581D0048CD9
:100F2600028A82758300C0047408C0E012100F158F
:100F360081D004D0058D028A82758300C005C00465
:100F46007408C0E012100F1581D004D005D006D069
:100F5600078E048C827583007408C0E012100F158A
:100F660081227406C0E090000612100F1581227EC1
:100F7600007F0053937F53927F7D00D296900001AD
:100F8600C007C006C005121C04C296900001121CC0
:100F960004D005D006D007EFC313CE13CEFF30978B
:100FA600034307800DBD100040D18E828F83227EC1
:100FB600007F0053937F53927F7D00D2969000016D
:100FC600C007C006C005121C04C296900001121C80
:100FD60004D005D006D007EFC313CE13CEFF30974B
:100FE600034306800DBD080040D18E828F832212F6
:100FF6000F75AE82AF835306FE53077F8E82EFC313
:1010060013C58213C582F58322C01E85811EAE825A
:10101600AF8353927F4393807D00E51E24FDF8C382
:10102600ED96502CEE30E004D2978002C2979000E5
:1010360001C007C006C005121C04D005D006D007A3
:10104600D296EFC313CE13CEFFC296C2970D80CAB7
:10105600D01E22AC82AD83AEF0FF53927F439380C5
:101066007B00EE30E604D2978002C297900001C062
:1010760007C006C005C004C003121C04D296900027
:1010860001121C04D003D004D005D006D007EC2CE6
:10109600FCED33FDEE33FEEF33FFC2960BBB1700BC
:1010A60040C0C297900001121C04D2969000011213
:1010B6001C04C29622AF8253927F4393807E00EF38
:1010C60030E704D2978002C297900001C007C0069D
:1010D600121C04D296900001121C04D006D0078F71
:1010E60005ED2DFFC296C2970EBE080040D1227EA6
:1010F600007F0053937F53927F7D00D2969000012C
:10110600C007C006C005121C04C296900001121C3E
:1011160004D005D006D007EE2EFEEF33FF3097033E
:101126004306010DBD080040D28E828F83227E00C9
:101136007F0053937F53927F7D00D296900001C02B
:1011460007C006C005121C04C296900001121C04BA
:10115600D005D006D007EE2EFEEF33FF30970343BF
:1011660006010DBD100040D28E828F8322C295905B
:10117600012C121C047408C0E090005012100F15C8
:10118600817408C0E090004812100F15817408C0E1
:10119600E090004312100F15817408C0E090004DD6
:1011A60012100F15817401C0E090000012100F1587
:1011B6008175820022C29590012C121C0475824D05
:1011C6001210BB7582431210BB7582481210BB7594
:1011D60082501210BB90012C121C04D2957582000D
:1011E6002290000575F03CE41217B8740FC0E0C0F9
:1011F600E075820C12188F1581158190000475F028
:101206003CE41217B8748FC0E0C0E075820C121867
:101216008F15811581E4C0E0C0E075820012188F39
:10122600158115817404C0E090000012100F15811D
:10123600900014121C227410C0E090000012100FCF
:1012460015812290000575F03CE41217B87401C0B0
:10125600E0C0E075820C12188F158115819000048C
:1012660075F03CE41217B87480C0E0C0E075820CDB
:1012760012188F15811581E4C0E0C0E07582001256
:10128600188F158115817404C0E090000012100FAC
:101296001581900258121C227410C0E090000012B2
:1012A600100F158122C01E85811E05810581AF8222
:1012B6007E008F048C05E44207ED4206E51E24FD00
:1012C600F886047D008C028A037A00A81E08EC4A80
:1012D600F6ED4B08F6E51E24FCF886027B008A0430
:1012E6008C05E44202ED420390000475F03CE4C034
:1012F60007C006C003C0021217B8D002D003C0024E
:10130600C00375820C12188F158115819000057522
:10131600F03CE41217B8A81E08E6C0E008E6C0E0F4
:1013260075820C12188F1581158190000675F03C98
:10133600E41217B875820C12188F15811581E4C056
:10134600E0C0E075820012188F158115817404C003
:10135600E090000012100F1581900005121C2274F7
:1013660010C0E090000012100F1581851E81D01E5E
:1013760022C01E85811EC082C083C0F00581747F95
:10138600C0E0748EC0E075820012188F1581158139
:10139600747FC0E0749CC0E075820012188F1581BE
:1013A6001581747FC0E07484C0E075820012188FC6
:1013B60015811581E51E24FAF8868208868308863B
:1013C600F008E61217B8E51E2404F87600E51E2498
:1013D600F9F886027B00EA24FFFEEB34FFFFE51EE8
:1013E6002404F886047D00C3EC9EED64808FF063D0
:1013F600F08095F0503FE51E2404F8E675F002A44F
:10140600FCAFF0A81E08EC26FCEF0836FF0886069F
:101416008C828F838EF01221BEFCA31221BEFFC0E8
:1014260004C00775820D12188F15811581E51E24DB
:1014360004F80680981ABAFF011BEA2AFAEB33FB76
:10144600A81E08EA26FAEB0836FB0886078A828B6E
:10145600838FF01221BEFAA31221BEFBC002C00385
:1014660075820F12188F158115817582001216CF9D
:10147600851E81D01E22C01E85811EC082C083C0EB
:10148600F0058174A6C0E0748EC0E0758200121863
:101496008F1581158174A6C0E0749CC0E07582002A
:1014A60012188F1581158174A6C0E07484C0E0758A
:1014B600820012188F15811581E51E24FAF886829E
:1014C6000886830886F008E61217B8E51E2404F895
:1014D6007600E51E24F9F886027B00EA24FFFEEB7F
:1014E60034FFFFE51E2404F886047D00C3EC9EED60
:1014F60064808FF063F08095F0503FE51E2404F879
:10150600E675F002A4FCAFF0A81E08EC26FCEF0876
:1015160036FF0886068C828F838EF01221BEFCA3CE
:101526001221BEFFC004C00775820D12188F1581E7
:101536001581E51E2404F80680981ABAFF011BEAF5
:101546002AFAEB33FBA81E08EA26FAEB0836FB0854
:1015560086078A828B838FF01221BEFAA31221BEE0
:10156600FBC002C00375820F12188F158115817595
:1015760082011216CF851E81D01E22C01E85811EB5
:10158600AF82C00774A6C0E0748EC0E075820012F8
:10159600188F1581158174A6C0E0748CC0E0758221
:1015A6000012188F1581158174A6C0E07484C0E0FE
:1015B60075820012188F15811581E51E24F9F886AB
:1015C600820886830886F008E61217B87E00C006F1
:1015D60075820F12188F158115817582011216CF2B
:1015E600900005121C22E51E24F9F8740126FCE47D
:1015F6000836FDE40836FEE408368C828D838EF0CC
:101606001217B8E51E24FDF886068E077E00C00672
:10161600C00775820F12188F158115817582011208
:1016260016CF900005121C22D01E22C01E85811ED8
:10163600AF82C007747FC0E0748EC0E0758200126E
:10164600188F15811581747FC0E0748CC0E0758297
:101656000012188F15811581E51E24F9F886820877
:1016660086830886F008E61217B87E00C0067582E3
:101676000F12188F158115817582011216CF9000F1
:1016860005121C22E51E24F9F8740126FCE408362E
:10169600FDE40836FEE408368C828D838EF0121740
:1016A600B8E51E24FDF886068E077E00C006C00734
:1016B60075820F12188F158115817582011216CF4A
:1016C600900005121C22D01E22AF8253927F4393B4
:1016D60080C2977E00900001C007C006121C04D28B
:1016E60096900001121C04D006D007C2960EBE03C7
:1016F6000040E2900001C007121C04D007D296BF3A
:101706000106900004121C22900001121C22C296AF
:10171600900001121C047410C0E090000012100F1B
:10172600158122C01E85811EC082C083C0F005813E
:101736000581E51E24FAF886820886830886F00865
:10174600E61217B87C00E51E24F9F8C3EC96505C47
:10175600C00412184BAB82D0048B057E00C006C0B5
:1017660005C00412184BAB82D004D005D006E51E86
:101776002404F808A603187600EC75F002A4FAAB68
:10178600F0A81E08EA26FAEB0836FB088607E51ECF
:101796002404F8E6420508E642068A828B838FF027
:1017A600ED1221A3A3EE1221A30C809A851E81D0EF
:1017B6001E22AC82AD83AEF0FF8E027B0043030E89
:1017C600C007C006C005C004C002C003758200126F
:1017D600188F1581158174F8C0E0746EC0E07582AB
:1017E6000012188F15811581D004D0058D027B005B
:1017F60043030EC005C004C002C003758200121860
:101806008F1581158174F7C0E0746EC0E075820093
:1018160012188F15811581D004D005D006D0077D0A
:101826000043050EC004C00575820012188F15818D
:10183600158174F6C0E0746EC0E075820012188FD0
:1018460015811581227404C0E090000912100F154D
:10185600817408C0E090000012100F1581020FB5C8
:1018660090FFFE75F03FE41217B812184BAE827F58
:1018760000C007C00612184BAD82D006D0077C0008
:10188600ED4FF582EC4EF58322C01E85811EAF8298
:101896007E007404C0E08F828E8312100F1581744F
:1018A60010C0E0E51E24FCF8868208868312100F1D
:1018B600158190001E121C04D01E22AF827E007479
:1018C60004C0E08F828E8312100F1581020F75D22D
:1018D6009590001E121C22C29590001E121C22D248
:1018E6009553927F4393805392BF439340C296C2CF
:1018F6009775820022C29590012C121C0475824DA8
:101906001210BB7582431210BB7582481210BB754C
:1019160082501210BB90012C121C0475820022AC5E
:1019260082AD83AEF0FF758280C007C006C005C0D9
:10193600041210BB900002121C04D004D005D0067D
:10194600D0078C828D838EF0EF02105975821812A3
:1019560010BB900064021C22C01E85811EAE82AFA1
:1019660083E51E24FDF8E6700FF582C007C0061257
:1019760010BBD006D007800E758202C007C00612C3
:1019860010BBD006D007900002C007C006121C0488
:10199600D006D0077D007C008E828F838DF0EC12FE
:1019A6001059900002121C04D01E22E582700875A0
:1019B60082FC1210BB80067582FE1210BB900002DC
:1019C600121C041210F5AE82C006121134AD82AF9D
:1019D60083D006EFC313CD13CDFFEE30E0034307EC
:1019E600808D828F8322AF827582E0C0071210BB82
:1019F600900003121C22D007EF6006900003021C21
:101A06002222908006E4F5F012192575820102194A
:101A1600B1C01E85811EC082C083C0F0E51E24FAB7
:101A2600F886820886830886F008E61219257C0067
:101A3600E51E24F9F8C3EC965038EC75F002A4FACA
:101A4600ABF0A81E08EA26FAEB0836FB0886078ADA
:101A5600828B838FF01221BEFAA31221BEFBC00433
:101A66007401C0E08A828B8312195E1581D0040C42
:101A760080BEE51E24FAF886820886830886F0086A
:101A8600E61219257582001219EC851E81D01E22D8
:101A9600C01E85811EC082C083C0F0E51E24FAF8F0
:101AA60086820886830886F008E61219257C00E5FA
:101AB6001E24F9F8C3EC965041EC75F002A4FAAB7B
:101AC600F0A81E08EA26FAEB0836FB088607758298
:101AD60001C007C004C003C0021219B1AD82AE83B3
:101AE600D002D003D004D0078A828B838FF0ED1208
:101AF60021A3A3EE1221A30C80B5851E81D01E2240
:101B0600C01E85811EAE82AF83E51E24FAF886824A
:101B16000886830886F008E6C007C006121925D095
:101B260006D007E4C0E08E828F8312195E15817598
:101B360082011219ECD01E22C01E85811EC082C0F1
:101B460083C0F0E51E24FAF886820886830886F0AC
:101B560008E61219257C00E51E24F9F8C3EC965018
:101B6600497582E0C0041210BBD004EC75F002A4E3
:101B7600FAABF0A81E08EA26FAEB0836FB08860739
:101B86008A828B838FF01221BEFAA31221BEFB7FBD
:101B9600007E008A828B838FF0EEC004121059906B
:101BA6000041121C04D0040C80AD851E81D01E227B
:101BB600C01E85811EAE82AF83E51E24FAF886829A
:101BC6000886830886F008E6C007C0061219257540
:101BD60082E01210BBD006D0077D007C008E828F7B
:101BE600838DF0EC121059900041121C04D01E2275
:101BF600C021121C56D021300803021C3C22AE82A2
:101C0600AF83EE4F601505A105A105A105A105A1AC
:101C160005A105A11EBEFF011F80E722AE82AF838C
:101C2600EE4F6011E5C330E7FBE5C320E7FB1EBEC0
:061C3600FF011F80EB22FC
:0200B100C2008B
:101C3C00200016900117E06010D200900117E0F51B
:101C4C00D553D4FC900117E4F022AF822000FD9014
:101C5C000117E0FE04F07D0074402EFEE43DFDEE25
:101C6C002414F582ED3400F583EFF0900117E0FFBA
:101C7C00BF4003021C3C22AD82AE83AFF08D828E3E
:101C8C00838FF01221BEFC60180DBD00010E8C82FA
:101C9C00C007C006C005121C56D005D006D0078060
:101CAC00DC22121C8375820A121C56021C3C900109
:101CBC0015E060FA900116E0FF04F0EF2414F582B1
:101CCC00E43400F583E0FF900115E014FEF0EE70B3
:101CDC000353D4F38F82227E0A7F008EEE8FEF7E29
:101CEC00147F008EE48FE575D21275D41275EB0C4F
:101CFC0075EA4075D30075D500900115E4F0C2006B
:101D0C0022AF16BF20028036BF21028005BF2232CF
:101D1C0080207F008F057E00EF240DF582E43401D6
:101D2C00F583E08D828E83F00FBF070040E675824D
:101D3C000722900002E0900114F075820022758257
:101D4C0000227582FF227420B5162D7F00C3E5DBBF
:101D5C009407920840047E078002AEDBC3EF9E50CE
:101D6C0017EF240DFDE43401FE8F82758300E0FC37
:101D7C008D828E83F00F80D575DC402274FC55D497
:101D8C004402F5D4C2002230DE17E5DB601374F395
:101D9C0055D44408F5D4900115E5DBF0900116E418
:021DAC00F02223
:0B22FB0000C20100000008000000000D
:102248001201100100000008C016DD27000101027C
:10225800030109024B000201008064080B0002021E
:10226800020104090400000102020104052400100F
:1022780001052401000004240202052406000107C8
:1022880005810308000109040100020A000004078F
:10229800050202400000070582024000000403090D
:1022A80004180377006100670069006D0069006E1B
:1022B80000610074006F007200120343004800358B
:1022C80000350078004300440043001203430048EF
:1022D80000350035007800430044004300160343EE
:1022E80000440043002D005300650072006900613E
:0322F800006C0077
:101DAE007E007F008EEC8FED75DC0275DD00C201CA
:101DBE00021CE375E22975D181121DAE75E107751E
:101DCE00D81FD2EAD2AF22C0E0C007AF8205A290E0
:101DDE00000015A2851C82851D83E493A3A5DFFA5E
:101DEE0085821C85831DD007D0E0227F00900007DE
:101DFE00E0FD7E00900006E0FC7B004EF51AEB4DF8
:101E0E00F51B900001E0F516900000E0F517E517C0
:101E1E005460600302201FE516FE24F450030220D6
:101E2E001BEEF5F0240B83F582E5F0241083F58389
:101E3E00E4733F5F1BBA1B0E581B173437371F1F37
:101E4E00201F201F1E201F1F2020900003E0FEBE1B
:101E5E000102800ABE0202800FBE03688014751C48
:101E6E0048751D227F12805E751C5A751D227F4B90
:101E7E008054900002E0FE24FB4038EE2E901E8F20
:101E8E00738008800E8014801A8020751CA5751D25
:101E9E00228026751CA9751D22801E751CC1751DFC
:101EAE00228016751CD3751D22800E751CE5751DBE
:101EBE00228006751CD3751D22851C82851D83E428
:101ECE0093FF80027FFFBFFF030220378F057E0046
:101EDE00C3ED951AEE951B50048D1A8E1BAD1AAEDE
:101EEE001BC3ED9408EE9400920840067D087E0018
:101EFE008004AD1AAE1B8D078F82121DD5022037BE
:101F0E00900002E0F519022037900000E518F0ADC0
:101F1E001AAE1BC374019DE49E5006751A01751B03
:101F2E0000AF1A022037900002E0F518D20102200D
:101F3E0037900000E4F0900001F0AD1AAE1BC374B0
:101F4E00029DE49E5006751A02751B00AF1A022000
:101F5E0037E517541F701E900002E0FEBE0111906F
:101F6E002261E493FE30E5030220377FFF02203723
:101F7E007FFF022037AD1753051F7E00BD0228BE1E
:101F8E000025900004E0FEBE02028005BE82138092
:101F9E000653D47302203774BC55D44402F5D402D0
:101FAE0020377FFF0220377FFF022037E517541FAF
:101FBE007019900002E0FEBE010D902261E493FEC6
:101FCE0020E5667FFF80627FFF805EAD1753051FA1
:101FDE007E00BD0234BE0031900002E070279000FA
:101FEE0004E0FEBE02028005BE8216800A747F5592
:101FFE00D4440CF5D4803274BF55D44403F5D48048
:10200E00287FFF80247FFF80207FFF801C7FFF8042
:10201E0018AD175305607E00BD200CBE0009121DC1
:10202E000DAE828E0780027FFFBFFF077516FF750C
:10203E00DCCF228F057E00AB1AAC1BEBC39DFBECF5
:10204E009EFC8B1A8C1B8FDD75DCC022AF16BF0574
:10205E0002803ABF0645AE1AAF1BC3EE9408EF944A
:10206E0000920840067E087F008004AE1AAF1B8ED9
:10207E0082121DD58E057F00AB1AAC1BEBC39DFBE8
:10208E00EC9FFC8B1A8C1B8EDD63DC4022E5E35447
:10209E0080FFE5194FF5E375DC822275DC8222AEF6
:1020AE00175306607F00BE2006BF0003021D527547
:1020BE00DC402230D94FAFD953070FADD95305307D
:1020CE007E00BD0005BE00028027BD2005BE0002B9
:1020DE00800BBD302EBE002B121DF98026BF0002D4
:1020EE008005BF021E800512205A8017121D88809F
:1020FE0012BF00028005BF020A80051220AD8003C8
:10210E00121D93C2D910DA02800030D809121DAE0A
:07211E0075E30075D81F22D4
:04000000020049327F
:01000B0032C2
:0100130032BA
:01001B0032B2
:0100230032AA
:01002B0032A2
:01003300329A
:01003B003292
:030043000221296E
:0300B30002004602
:030046000221682C
:1021250075820022C021C0E0C0F0C082C083C00714
:10213500C006C005C004C003C002C001C000C0D0B5
:1021450075D0001220C1D0D0D000D001D002D0036C
:10215500D004D005D006D007D083D082D0F0D0E00F
:10216500D0213275A15575A1AA53B9F843B90675A1
:10217500A100900014121C225392EF439310539226
:10218500DF4393205392BF43934053927F43938001
:0E219500C294121DC1900014121C220200B64A
:06007800E478FFF6D8FD5C
:10005600790BE94400601B7A019022FB780D75A0AC
:1000660001E493F2A308B8000205A0D9F4DAF27508
:02007600A0FFE9
:1021A30020F71130F6138883A88220F509F6A88357
:0B21B3007583002280FEF280F5F02210
:10007E007800E84400600A790175A000E4F309D81D
:10008E00FC780CE84401600C7902900001E4F0A3C6
:04009E00D8FCD9FAB7
:0D004900758121122125E582600302004629
:1021BE0020F71430F6148883A88220F507E6A8834A
:1021CE0075830022E280F7E49322E022C2D5E583F4
:1021DE0030E70DD2D5E4C39582F582E49583F5837D
:1021EE00E58124FEF8E630E70AB2D518E4C396F688
:1021FE00E40896F918E6F812222130D50BE4C395BF
:10220E0082F582E49583F58322E58124FEF8E6F9D2
:10221E0018E6F87A10E4FBFCE58225E0F582E5830A
:10222E0033F583EB33FBEC33FCEB98F5F0EC994094
:0A223E0006FCABF0438201DADF2258
:00000001FF
